:100000000C946E000C9496000C9496000C94960040
:100010000C9496000C9496000C9496000C94960008
:100020000C9496000C9496000C9496000C949600F8
:100030000C9496000C9496000C9496000C949600E8
:100040000C94E6050C9496000C94B4050C948E0563
:100050000C9496000C9496000C9496000C949600C8
:100060000C9496000C9496000000000024002700D9
:100070002A002D0000000000250028002B002E0083
:10008000000000002300260029002C0004040404C2
:100090000404040402020202020203030303030332
:1000A000050505050505050102040810204080012D
:1000B00002040810200102040810200208010410A4
:1000C0002040000000085002010000030407000067
:1000D00000000000000000003006AF0811241FBE21
:1000E000CFEFD8E0DEBFCDBF11E0A0E0B1E0E2E4A9
:1000F000FBE102C005900D92AC34B107D9F722E0C4
:10010000ACE4B1E001C01D92A431B207E1F710E008
:10011000CDE6D0E004C02197FE010E94930BCC36BF
:10012000D107C9F70E94B2060C94940D0C940000FC
:100130008091F9019091FA01892B31F08091F501BC
:100140009091F601009721F41092570187E591E014
:100150000895AF92BF92CF92DF92EF92FF920F93EA
:100160001F93CF93DF936C017B018B01040F151F4D
:10017000EB015E01AE18BF08C017D10759F06991B5
:10018000D601ED91FC910190F081E02DC601099519
:10019000892B79F7C501DF91CF911F910F91FF90C6
:1001A000EF90DF90CF90BF90AF900895FC01538DFA
:1001B000448D252F30E0842F90E0821B930B541741
:1001C00010F0CF96089501970895FC01918D828DCE
:1001D000981761F0A28DAE0FBF2FB11D5D968C9167
:1001E000928D9F5F9F73928F90E008958FEF9FEFA6
:1001F0000895FC01918D828D981731F0828DE80F62
:10020000F11D858D90E008958FEF9FEF0895FC011B
:10021000918D228D892F90E0805C9F4F821B9109E8
:100220008F739927089588E591E00E94070121E0E6
:10023000892B09F420E0822F089580E090E0892B3B
:1002400029F00E94130181110C9400000895FC0113
:10025000A48DA80FB92FB11DA35ABF4F2C91848D27
:1002600090E001968F739927848FA689B7892C9384
:10027000A089B1898C9180648C93938D848D98131F
:1002800006C00288F389E02D80818F7D80830895E8
:10029000EF92FF920F931F93CF93DF93EC0181E0D6
:1002A000888F9B8D8C8D981316C0E889F989808181
:1002B00085FF11C0EE89FF896083E889F989808113
:1002C0008064808381E090E0DF91CF911F910F9156
:1002D000FF90EF900895F62E0B8D10E00F5F1F4FEB
:1002E0000F731127E02E8C8D8E110CC00FB607FCFA
:1002F000FACFE889F989808185FFF5CFCE010E9488
:100300002701F1CFEB8DEC0FFD2FF11DE35AFF4FCD
:10031000F0820B8FEA89FB8980818062D2CF682FBF
:1003200088E591E00C944801CF93DF93EC01888D30
:100330008823B9F0AA89BB89E889F9898C9185FD60
:1003400003C0808186FD0DC00FB607FCF7CF8C91EE
:1003500085FFF2CF808185FFEDCFCE010E9427017E
:10036000E9CFDF91CF91089581508B3088F5E82F48
:10037000F0E0E354FE4F0C94930BD201D601C80178
:10038000CE01E801E801D901DF01E301E901ED0156
:10039000809180008F778093800008958091800005
:1003A0008F7DF9CF84B58F7784BD089584B58F7D17
:1003B000FBCF8091B0008F778093B000089580913B
:1003C000B0008F7DF9CF809190008F77809390005F
:1003D0000895809190008F7DF9CF80919000877F64
:1003E000F5CF1F93CF93DF93282F30E0F901EE5321
:1003F000FF4F8491F901E955FF4FD491F901E4577A
:10040000FF4FC491CC23A9F0162F81110E94B40193
:10041000EC2FF0E0EE0FFF1FEC58FF4FA591B491C9
:100420008FB7F894EC91111108C0D095DE23DC93BE
:100430008FBFDF91CF911F910895DE2BF8CFCF931F
:10044000DF93282F30E0F901E955FF4F44912457FD
:100450003F4FF9012491843019F583E08093A00087
:100460002223D9F0822F90E0880F991FFC01E859D0
:10047000FF4FA591B491FC01EC58FF4FC591D49169
:10048000623019F59FB7F8942C91842F80958223C0
:100490008C93E8814E2B48839FBFDF91CF910895C5
:1004A0009AEE980F923020F48FEF84BF84BFD8CF9C
:1004B0008A31B1F68091F00082608EBB80E8809333
:1004C000F0008EB38093F000CBCF8FB7F894EC910F
:1004D0004E2B4C938FBFE1CF3FB7F89480915101E1
:1004E00090915201A0915301B091540126B5A89B5F
:1004F00005C02F3F19F00196A11DB11D3FBFBA2FB6
:10050000A92F982F8827BC01CD01620F711D811D75
:10051000911D42E0660F771F881F991F4A95D1F7FA
:1005200008952F923F924F925F926F927F928F9297
:100530009F92AF92BF92CF92DF92EF92FF920F9372
:100540001F93CF93DF93C82F062F49015A010E94B2
:100550006C026B017C01D0E0CE018E539F4F2C01C9
:10056000FE01E955FF4F3F01C457DF4F10E0F20194
:100570008491F3013490FE012490222029F181110D
:100580000E94B401E22DF0E0EE0FFF1FE058FF4F94
:10059000A591B4918C91382231E020E009F430E04B
:1005A000832F922F0817190791F40E946C026C197F
:1005B0007D098E099F0986169706A806B906B8F622
:1005C00060E070E0CB0109C090E080E0EBCF0E94DA
:1005D0006C026C197D098E099F09DF91CF911F91E3
:1005E0000F91FF90EF90DF90CF90BF90AF909F90D2
:1005F0008F907F906F905F904F903F902F900895D5
:100600008F929F92AF92BF92CF92DF92EF92FF9222
:100610004B015C010E946C026B017C010E946C0228
:100620006C197D098E099F09683E7340810591050B
:10063000A8F321E0821A9108A108B10888EEC80E3B
:1006400083E0D81EE11CF11C81149104A104B104C3
:1006500029F7FF90EF90DF90CF90BF90AF909F90E1
:100660008F900895CF92DF92EF92FF920F931F9396
:10067000CF93DF9300D000D01F92CDB7DEB71982A1
:100680001A821B821C821D8261E08091FD010E9402
:100690001F0260E08091FD010E94F10162E170E0C3
:1006A00080E090E00E94000362E08091FD010E94E2
:1006B0001F0228E230E040E050E061E08091FD015F
:1006C0000E949102672B682B692B89F48DEF809330
:1006D000FF010F900F900F900F900F90DF91CF912F
:1006E0001F910F91FF90EF90DF90CF90089520E53C
:1006F00030E040E050E060E08091FD010E94910216
:10070000672B682B692B11F320E530E040E050E0C7
:1007100061E08091FD010E949102672B682B692B9B
:10072000A9F210E000E022E330E040E050E060E0B9
:100730008091FD010E94910224E630E040E050E00B
:1007400061E08091FD010E949102662331F1F80180
:1007500073E0F595E7957A95E1F781E090E08C0FED
:100760009D1FE80FF91F8081880F91E06E3208F419
:1007700090E0890F80830F5F1F4F0832110599F6B3
:1007800069814A810B811C81862F840F800F810F24
:100790009D81891721F08FEF9ACF8EEF98CF8091AE
:1007A000FE01853109F487C0863109F4BAC08B3067
:1007B00009F06AC070E090E080E00E94F108609368
:1007C0000C0270930D0280930E0290930F02602F23
:1007D00070E090E080E00E94F3086B017C0117FF5D
:1007E00057C01F77612F70E090E080E00E94F3080F
:1007F0002DEC3CEC4CEC5DE30E942E099B01AC011E
:1008000060E070E080E89FE30E947E0AA701960105
:100810000E947F0A6B017C01F7FAF094F7F8F094DC
:10082000C0920002D0920102E0920202F092030212
:1008300020E030E040E151E4C701B6010E942E09FA
:1008400020E030E040EA50E40E94EB0A20E030E093
:1008500040E052E40E947F0A609304027093050214
:10086000809306029093070223E333E948E853E4B8
:10087000C701B6010E947F0A6093080270930902C3
:1008800080930A0290930B021092FF0180E021CF27
:10089000612F70E090E080E00E94F3082DEC3CECCA
:1008A0004CEC5DE30E942E09A70196010E947F0A8D
:1008B0006B017C01B5CF262F30E0322F2227B90102
:1008C000640F711D072E000C880B990B0E94F30812
:1008D0002DEC3CEC4CEC5DE30E942E0960930C0285
:1008E00070930D0280930E0290930F02602F70E0C0
:1008F000762F662766277F77610F711D072E000C04
:10090000880B990B0E94F3082DEC3CEC4CEC5DEB52
:1009100007FD04C02DEC3CEC4CEC5DE30E942E097D
:10092000C7CF862F90E0982F8827BC01C9CF90E0D1
:10093000B0E0A0E09C01AD0121503109410951090D
:10094000ADE4B0E00E940B0A22E630E040E050E067
:100950000E94EC092F5F3F4F4F4F5F4F2093B40031
:1009600008958F929F92AF92BF920F931F93CF9350
:10097000DF93CDB7DEB7A1970FB6F894DEBF0FBEF9
:10098000CDBF19A2423008F44AE08E010F5D1F4F1F
:10099000842E912CB12CA12CA50194010E944D0A0A
:1009A000E62FB901CA01EA3044F5E05DD801EE93C3
:1009B0008D01232B242B252B79F790E080E01097D5
:1009C00069F0FD0101900020E9F73197AF014A1B62
:1009D0005B0BBD0188E591E00E94A900A1960FB6CE
:1009E000F894DEBF0FBECDBFDF91CF911F910F9165
:1009F000BF90AF909F908F900895E95CD7CFCF9232
:100A0000DF92EF92FF92CF93DF936C01990FEE0884
:100A1000FF08F7FE17C08DE20E948F01EC016627E8
:100A20007727CB016C197D098E099F094AE00E9446
:100A3000B1048C0F9D1FDF91CF91FF90EF90DF905D
:100A4000CF9008954AE0C701B601DF91CF91FF90A2
:100A5000EF90DF90CF900C94B104FC010190002046
:100A6000E9F73197AF01481B590BBC0188E591E0CC
:100A70000C94A900CF93DF93EC018091F501909144
:100A8000F601009759F02091F7013091F8012C17E9
:100A90003D0720F081E0DF91CF910895BE016F5FA7
:100AA0007F4F0E94BE0C009789F09093F6018093CF
:100AB000F501D093F801C093F7012091F90130912D
:100AC000FA01232B39F7FC011082E4CF80E0E3CF59
:100AD00090E080E00E943A052091F5013091F60106
:100AE000811113C02115310519F0C9010E94350C7F
:100AF0001092F6011092F5011092FA011092F9018C
:100B00001092F8011092F70108951092FA011092D4
:100B1000F9016EE271E0C9010C948D0D1F920F92E4
:100B20000FB60F9211242F933F934F935F936F93C0
:100B30007F938F939F93AF93BF93EF93FF9388E53A
:100B400091E00E942701FF91EF91BF91AF919F919A
:100B50008F917F916F915F914F913F912F910F9066
:100B60000FBE0F901F9018951F920F920FB60F9205
:100B700011242F938F939F93EF93FF93E09168013C
:100B8000F09169018081E0916E01F0916F0182FD29
:100B90001BC09081809171018F5F8F7320917201D2
:100BA000821741F0E0917101F0E0E85AFE4F958F15
:100BB00080937101FF91EF919F918F912F910F90F1
:100BC0000FBE0F901F9018958081F4CF1F920F9247
:100BD0000FB60F9211242F933F938F939F93AF9350
:100BE000BF9380914D0190914E01A0914F01B09122
:100BF000500130914C0123E0230F2D3758F5019619
:100C0000A11DB11D20934C0180934D0190934E0185
:100C1000A0934F01B09350018091510190915201E6
:100C2000A0915301B09154010196A11DB11D809373
:100C3000510190935201A0935301B0935401BF917D
:100C4000AF919F918F913F912F910F900FBE0F9079
:100C50001F90189526E8230F0296A11DB11DD2CF33
:100C600010925B0110925A0188EE93E0A0E0B0E090
:100C700080935C0190935D01A0935E01B0935F014E
:100C80008CE091E0909359018093580185EC90E0BD
:100C9000909365018093640184EC90E090936701E8
:100CA0008093660180EC90E09093690180936801E5
:100CB00081EC90E090936B0180936A0182EC90E06C
:100CC00090936D0180936C0186EC90E090936F019E
:100CD00080936E0110927101109272011092730153
:100CE0001092740182E08093FD018BE08093FE01FD
:100CF00080910001909101019093FC018093FB0190
:100D00001092F6011092F5011092F8011092F7017D
:100D10001092FA011092F90190E080E00E943A05E9
:100D20002091F5013091F601811113C02115310593
:100D300019F0C9010E94350C1092F6011092F501CC
:100D40001092FA011092F9011092F8011092F70135
:100D500008951092FA011092F9016EE271E0C90152
:100D60000C948D0DCF93DF9300D0CDB7DEB780917B
:100D7000F20080618EBB80E88093F2009EB3909376
:100D8000F2008093610011E010936100789484B5C3
:100D9000826084BD84B5816084BD85B5826085BD77
:100DA00085B5816085BD80916E00816080936E0005
:100DB00010928100809181008260809381008091F7
:100DC00081008160809381008091800081608093A8
:100DD00080008091B10084608093B1008091B00068
:100DE00081608093B0008091910082608093910037
:100DF000809191008160809391008091900081604A
:100E00008093900080917A00846080937A00809132
:100E10007A00826080937A0080917A00816080936A
:100E20007A0080917A00806880937A001092C100E5
:100E300061E080E00E941F0261E083E00E941F02E7
:100E400060E083E00E94F1011092B0001092B100C6
:100E50001092700017BA8091B00083628093B00046
:100E60008091B1008A608093B1008FE48093B300D9
:100E70001092B40064E670E080E090E00E9400030D
:100E8000809100010E949704E0916801F09169014E
:100E900082E08083E0916401F09165011082E0912D
:100EA0006601F091670180E1808310927001E0910A
:100EB0006C01F0916D0186E08083E0916A01F09110
:100EC0006B01808180618083E0916A01F0916B0108
:100ED000808188608083E0916A01F0916B0180815C
:100EE00080688083E0916A01F0916B0180818F7D41
:100EF000808384EF91E0A0E0B0E080935C01909368
:100F00005D01A0935E01B0935F010E943203809166
:100F1000FF01811102C01093550180E0A82E80E0EE
:100F2000B82E93E6C92ED12C88E591E00E940701E6
:100F3000181619064CF488E591E00E94E5008D33FF
:100F40009105F1F40E946805809156018F5F8093AE
:100F5000560161E0813808F460E08DE00E94F10103
:100F600065E070E080E090E00E940003A114B1040D
:100F7000D9F20E9413018823B9F20E940000D4CF55
:100F80008B3309F0CAC00E949800FC0180818B322B
:100F900069F58091F5019091F601009709F04FC035
:100FA00060E070E0CB012091000130910101C901A6
:100FB000860F971F843691050CF05EC09093010157
:100FC000809300018091FB019091FC012091000130
:100FD000309101012817390724F49093010180937F
:100FE0000001809100010E949704ACCF0E949800FC
:100FF000FC0180818D3269F20E949800FC018081A1
:10100000803304F58091F9019091FA01892B09F45C
:1010100099CF0091F5011091F6016AE171E0C801E4
:101020000E94840D892B69F167E371E0C8010E9479
:10103000840D892B09F086CF81E491E066C00E947F
:10104000B508B1CF0E949800FC0180818A33D4F6A4
:101050008091F5019091F601009751F00E94B5083A
:10106000643671054CF47093010160930001AACFBE
:1010700060E070E0CB01F4CFD0920101C09200019A
:10108000A1CF80915501882369F00E9432036091BD
:1010900000027091010280910202909103020E946D
:1010A0005D0B7B0183E291E00E942D0582E20E94AC
:1010B0008F0185E291E00E942D0582E20E948F015E
:1010C00089E291E00E942D0580910001909101013B
:1010D0000E94FF048CE291E00E942D0582E20E94B2
:1010E0008F018FE291E00E942D0582E20E948F0124
:1010F00089E291E00E942D0580915501882319F025
:10110000C7010E94FF0484E391E00E942D056AE07C
:1011100088E591E00E94480115CF89831A820091E9
:10112000F9011091FA010F5F1F4FC8010E943A05A3
:10113000882309F409CF2091F5013091F6018091BF
:10114000F9019091FA01BE016F5F7F4F820F931FEB
:101150000E948D0D1093FA010093F901F5CE809154
:10116000F5019091F6010C94350C1F93FC01992721
:101170008827BC01E89411911032E9F3193010F07E
:101180001E30C8F31B3251F01D3249F4689406C07A
:101190000E94DC08610F711D811D911D119110537A
:1011A0001A30B0F33EF490958095709561957F4F1D
:1011B0008F4F9F4F1F910895592F482F372F262F5C
:1011C000660F771F881F991F660F771F881F991F4B
:1011D000620F731F841F951F660F771F881F991F4B
:1011E0000895E89409C097FB3EF49095809570951A
:1011F00061957F4F8F4F9F4F9923A9F0F92F96E963
:10120000BB279395F695879577956795B795F111D7
:10121000F8CFFAF4BB0F11F460FF1BC06F5F7F4F74
:101220008F4F9F4F16C0882311F096E911C0772386
:1012300021F09EE8872F762F05C0662371F096E88F
:10124000862F70E060E02AF09A95660F771F881F5E
:10125000DAF7880F9695879597F908950E944109C6
:101260000C94B2090E94A40938F00E94AB0920F046
:10127000952311F00C949B090C94A10911240C9452
:10128000E6090E94C30970F3959FC1F3950F50E0E2
:10129000551F629FF001729FBB27F00DB11D639F28
:1012A000AA27F00DB11DAA1F649F6627B00DA11DCE
:1012B000661F829F2227B00DA11D621F739FB00D74
:1012C000A11D621F839FA00D611D221F749F3327E4
:1012D000A00D611D231F849F600D211D822F762F7D
:1012E0006A2F11249F5750409AF0F1F088234AF05A
:1012F000EE0FFF1FBB1F661F771F881F91505040C6
:10130000A9F79E3F510580F00C949B090C94E609C7
:101310005F3FE4F3983ED4F3869577956795B7954C
:10132000F795E7959F5FC1F7FE2B880F911D969566
:10133000879597F9089597F99F6780E870E060E0D6
:1013400008959FEF80EC089500240A94161617065E
:1013500018060906089500240A94121613061406A6
:1013600005060895092E0394000C11F4882352F009
:10137000BB0F40F4BF2B11F460FF04C06F5F7F4FC1
:101380008F4F9F4F089557FD9058440F551F59F0A8
:101390005F3F71F04795880F97FB991F61F09F3F62
:1013A00079F087950895121613061406551FF2CF8B
:1013B0004695F1DF08C0161617061806991FF1CFDB
:1013C00086957105610508940895E894BB27662702
:1013D0007727CB0197F90895052E97FB1EF400940B
:1013E0000E94030A57FD07D00E944D0A07FC03D054
:1013F0004EF40C94030A50954095309521953F4F3B
:101400004F4F5F4F089590958095709561957F4FF0
:101410008F4F9F4F08950E946F0AA59F900DB49F14
:10142000900DA49F800D911D112408952F923F923D
:101430004F925F926F927F928F929F92AF92BF92E4
:10144000CF92DF92EF92FF920F931F93CF93DF9390
:10145000CDB7DEB7CA1BDB0B0FB6F894DEBF0FBEED
:10146000CDBF09942A88398848885F846E847D843A
:101470008C849B84AA84B984C884DF80EE80FD803C
:101480000C811B81AA81B981CE0FD11D0FB6F894B2
:10149000DEBF0FBECDBFED010895A1E21A2EAA1B3B
:1014A000BB1BFD010DC0AA1FBB1FEE1FFF1FA21714
:1014B000B307E407F50720F0A21BB30BE40BF50B11
:1014C000661F771F881F991F1A9469F7609570959A
:1014D000809590959B01AC01BD01CF010895A29F1D
:1014E000B001B39FC001A39F700D811D1124911DF8
:1014F000B29F700D811D1124911D08955058BB2776
:10150000AA270E94960A0C94B2090E94A40938F0F6
:101510000E94AB0920F039F49F3F19F426F40C9493
:10152000A1090EF4E095E7FB0C949B09E92F0E94BA
:10153000C30958F3BA17620773078407950720F0A9
:1015400079F4A6F50C94E5090EF4E0950B2EBA2F6C
:10155000A02D0B01B90190010C01CA01A0011124B9
:10156000FF27591B99F0593F50F4503E68F11A1665
:10157000F040A22F232F342F4427585FF3CF4695F6
:1015800037952795A795F0405395C9F77EF41F1618
:10159000BA0B620B730B840BBAF09150A1F0FF0FE2
:1015A000BB1F661F771F881FC2F70EC0BA0F621FCE
:1015B000731F841F48F4879577956795B795F795BE
:1015C0009E3F08F0B0CF9395880F08F09927EE0F53
:1015D0009795879508950E94FF0A0C94B2090E947E
:1015E000AB0958F00E94A40940F029F45F3F29F0AC
:1015F0000C949B0951110C94E6090C94A1090E94CA
:10160000C30968F39923B1F3552391F3951B550B47
:10161000BB27AA2762177307840738F09F5F5F4FC5
:10162000220F331F441FAA1FA9F335D00E2E3AF004
:10163000E0E832D091505040E695001CCAF72BD01C
:10164000FE2F29D0660F771F881FBB1F261737076D
:101650004807AB07B0E809F0BB0B802DBF01FF279F
:1016600093585F4F3AF09E3F510578F00C949B09D8
:101670000C94E6095F3FE4F3983ED4F386957795A2
:101680006795B795F7959F5FC9F7880F911D969558
:10169000879597F90895E1E0660F771F881FBB1FB4
:1016A000621773078407BA0720F0621B730B840B61
:1016B000BA0BEE1F88F7E09508950E94640B6894BA
:1016C000B1110C94E60908950E94CB0988F09F5748
:1016D00098F0B92F9927B751B0F0E1F0660F771F56
:1016E000881F991F1AF0BA95C9F714C0B13091F04C
:1016F0000E94E509B1E008950C94E509672F782F61
:101700008827B85F39F0B93FCCF386957795679510
:10171000B395D9F73EF490958095709561957F4F7C
:101720008F4F9F4F0895EE0FFF1F0590F491E02D0E
:1017300009940F931F93CF93DF938230910510F498
:1017400082E090E0E0911202F091130230E020E09C
:10175000B0E0A0E0309799F42115310509F44AC0B2
:10176000281B390B24303105D8F58A819B816115FE
:10177000710589F1FB0193838283FE0111C04081D1
:1017800051810281138148175907E0F04817590722
:1017900099F4109761F012960C93129713961C937C
:1017A0003296CF01DF91CF911F910F910895009351
:1017B000120210931302F4CF2115310551F0421794
:1017C000530738F0A901DB019A01BD01DF01F801DF
:1017D000C1CFEF01F9CF9093130280931202CDCFC6
:1017E000FE01E20FF31F8193919322503109398357
:1017F0002883D7CF2091100230911102232B41F47E
:1018000020910401309105013093110220931002C0
:1018100020910201309103012115310541F42DB7CA
:101820003EB74091060150910701241B350BE09112
:101830001002F0911102E217F307A0F42E1B3F0BE8
:101840002817390778F0AC014E5F5F4F2417350732
:1018500048F04E0F5F1F5093110240931002819386
:1018600091939FCFF0E0E0E09CCFCF93DF93009780
:10187000E9F0FC01329713821282A0911202B0911A
:101880001302ED0130E020E01097A1F420813181B6
:10189000820F931F209110023091110228173907EF
:1018A00009F061C0F0931102E0931002DF91CF9133
:1018B0000895EA01CE17DF07E8F54A815B819E01B2
:1018C00041155105B1F7E901FB83EA83499159912B
:1018D000C40FD51FEC17FD0761F48081918102963A
:1018E000840F951FE90199838883828193819B836B
:1018F0008A83F0E0E0E012968D919C911397009717
:10190000B9F52D913C911197CD010296820F931F4D
:1019100020911002309111022817390739F63097BB
:1019200051F51092130210921202B0931102A0937B
:101930001002BCCFD383C28340815181840F951F95
:10194000C817D90761F44E5F5F4F88819981480FAE
:10195000591F518340838A819B8193838283211500
:10196000310509F0B0CFF0931302E09312029ECF3D
:10197000FD01DC01C0CF13821282D7CFB0E0A0E01E
:10198000E4ECFCE00C94180A8C01009751F4CB01B4
:101990000E94990B8C01C801CDB7DEB7E0E10C9431
:1019A000340AFC01E60FF71F9C0122503109E217AF
:1019B000F30708F49DC0D901CD91DC911197C617AA
:1019C000D70798F0C530D10530F3CE0104978617BC
:1019D000970708F3C61BD70B2297C193D1936D933A
:1019E0007C93CF010E94350CD6CF5B01AC1ABD0AA7
:1019F0004C018C0E9D1EA0911202B0911302512C2D
:101A0000412CF12CE12C109731F58091100290912E
:101A100011028815990509F05CC04616570608F0B2
:101A200058C08091020190910301009741F48DB755
:101A30009EB74091060150910701841B950BE81752
:101A4000F90708F055C0F0931102E0931002F90174
:101A500071836083A0CF8D919C91119712966C90A9
:101A6000129713967C901397A815B90559F56C0138
:101A700042E0C40ED11CCA14DB0420F1AC014A19A7
:101A80005B09DA011296159780F0628273825183A6
:101A90004083D9016D937C93E114F10471F0D70177
:101AA0001396FC93EE93129776CF22968C0F9D1F80
:101AB000F90191838083F301EFCFF0931302E09358
:101AC000120269CF4816590608F42C017D01D30192
:101AD0009ACFCB010E94990B7C01009749F0AE018F
:101AE000B8010E947B0DC8010E94350C870153CFBD
:101AF00010E000E050CFFB01DC0102C001900D922C
:101B000041505040D8F70895FB01DC018D910190C0
:101B100080190110D9F3990B0895FB01DC010190A4
:101B20000D920020E1F7089510E0CDE6D0E004C06A
:101B3000FE010E94930B2196CE36D107C9F7F89487
:021B4000FFCFD5
:101B42000200000014028000000000004801A90009
:101B5200D60094010701E500F9006765745F6A73B6
:101B62006F6E007B0070776D003A5B005D2C007435
:101B7200656D70005D7D006765745F6D6F64656C97
:0C1B8200004D5946414E5F332E310000EB
:00000001FF
